{
  "_format": "hh-sol-artifact-1",
  "contractName": "Crowdfunding",
  "sourceName": "contracts/crowdFunding.sol",
  "abi": [
    {
      "inputs": [],
      "stateMutability": "nonpayable",
      "type": "constructor"
    },
    {
      "anonymous": false,
      "inputs": [
        {
          "indexed": false,
          "internalType": "uint256",
          "name": "campaignId",
          "type": "uint256"
        },
        {
          "indexed": false,
          "internalType": "string",
          "name": "title",
          "type": "string"
        },
        {
          "indexed": false,
          "internalType": "address",
          "name": "benefactor",
          "type": "address"
        },
        {
          "indexed": false,
          "internalType": "uint256",
          "name": "goal",
          "type": "uint256"
        },
        {
          "indexed": false,
          "internalType": "uint256",
          "name": "deadline",
          "type": "uint256"
        }
      ],
      "name": "CampaignCreated",
      "type": "event"
    },
    {
      "anonymous": false,
      "inputs": [
        {
          "indexed": false,
          "internalType": "uint256",
          "name": "campaignId",
          "type": "uint256"
        },
        {
          "indexed": false,
          "internalType": "uint256",
          "name": "amountRaised",
          "type": "uint256"
        },
        {
          "indexed": false,
          "internalType": "bool",
          "name": "successful",
          "type": "bool"
        }
      ],
      "name": "CampaignEnded",
      "type": "event"
    },
    {
      "anonymous": false,
      "inputs": [
        {
          "indexed": false,
          "internalType": "uint256",
          "name": "campaignId",
          "type": "uint256"
        },
        {
          "indexed": false,
          "internalType": "address",
          "name": "donor",
          "type": "address"
        },
        {
          "indexed": false,
          "internalType": "uint256",
          "name": "amount",
          "type": "uint256"
        }
      ],
      "name": "DonationReceived",
      "type": "event"
    },
    {
      "inputs": [],
      "name": "campaignCount",
      "outputs": [
        {
          "internalType": "uint256",
          "name": "",
          "type": "uint256"
        }
      ],
      "stateMutability": "view",
      "type": "function"
    },
    {
      "inputs": [
        {
          "internalType": "uint256",
          "name": "",
          "type": "uint256"
        }
      ],
      "name": "campaigns",
      "outputs": [
        {
          "internalType": "string",
          "name": "title",
          "type": "string"
        },
        {
          "internalType": "string",
          "name": "description",
          "type": "string"
        },
        {
          "internalType": "address payable",
          "name": "benefactor",
          "type": "address"
        },
        {
          "internalType": "uint256",
          "name": "goal",
          "type": "uint256"
        },
        {
          "internalType": "uint256",
          "name": "deadline",
          "type": "uint256"
        },
        {
          "internalType": "uint256",
          "name": "amountRaised",
          "type": "uint256"
        },
        {
          "internalType": "bool",
          "name": "ended",
          "type": "bool"
        }
      ],
      "stateMutability": "view",
      "type": "function"
    },
    {
      "inputs": [
        {
          "internalType": "string",
          "name": "_title",
          "type": "string"
        },
        {
          "internalType": "string",
          "name": "_description",
          "type": "string"
        },
        {
          "internalType": "address payable",
          "name": "_benefactor",
          "type": "address"
        },
        {
          "internalType": "uint256",
          "name": "_goal",
          "type": "uint256"
        },
        {
          "internalType": "uint256",
          "name": "_duration",
          "type": "uint256"
        }
      ],
      "name": "createCampaign",
      "outputs": [],
      "stateMutability": "nonpayable",
      "type": "function"
    },
    {
      "inputs": [
        {
          "internalType": "uint256",
          "name": "_campaignId",
          "type": "uint256"
        }
      ],
      "name": "donate",
      "outputs": [],
      "stateMutability": "payable",
      "type": "function"
    },
    {
      "inputs": [
        {
          "internalType": "uint256",
          "name": "_campaignId",
          "type": "uint256"
        }
      ],
      "name": "endCampaign",
      "outputs": [],
      "stateMutability": "nonpayable",
      "type": "function"
    },
    {
      "inputs": [],
      "name": "owner",
      "outputs": [
        {
          "internalType": "address",
          "name": "",
          "type": "address"
        }
      ],
      "stateMutability": "view",
      "type": "function"
    },
    {
      "inputs": [],
      "name": "withdrawFunds",
      "outputs": [],
      "stateMutability": "nonpayable",
      "type": "function"
    },
    {
      "stateMutability": "payable",
      "type": "receive"
    }
  ],
  "bytecode": "0x608060405234801561001057600080fd5b5033600260006101000a81548173ffffffffffffffffffffffffffffffffffffffff021916908373ffffffffffffffffffffffffffffffffffffffff16021790555061173d806100616000396000f3fe6080604052600436106100745760003560e01c80638da5cb5b1161004e5780638da5cb5b1461013e5780639304d12414610169578063dd0408ae14610192578063f14faf6f146101bb576100b4565b8063141961bc146100b957806324600fc3146100fc5780637274e30d14610113576100b4565b366100b4576040517f08c379a00000000000000000000000000000000000000000000000000000000081526004016100ab90610a00565b60405180910390fd5b600080fd5b3480156100c557600080fd5b506100e060048036038101906100db9190610a6a565b6101d7565b6040516100f39796959493929190610b81565b60405180910390f35b34801561010857600080fd5b50610111610356565b005b34801561011f57600080fd5b5061012861049a565b6040516101359190610bfe565b60405180910390f35b34801561014a57600080fd5b506101536104a0565b6040516101609190610c3a565b60405180910390f35b34801561017557600080fd5b50610190600480360381019061018b9190610db6565b6104c6565b005b34801561019e57600080fd5b506101b960048036038101906101b49190610a6a565b6106d2565b005b6101d560048036038101906101d09190610a6a565b61086f565b005b60006020528060005260406000206000915090508060000180546101fa90610e98565b80601f016020809104026020016040519081016040528092919081815260200182805461022690610e98565b80156102735780601f1061024857610100808354040283529160200191610273565b820191906000526020600020905b81548152906001019060200180831161025657829003601f168201915b50505050509080600101805461028890610e98565b80601f01602080910402602001604051908101604052809291908181526020018280546102b490610e98565b80156103015780601f106102d657610100808354040283529160200191610301565b820191906000526020600020905b8154815290600101906020018083116102e457829003601f168201915b5050505050908060020160009054906101000a900473ffffffffffffffffffffffffffffffffffffffff16908060030154908060040154908060050154908060060160009054906101000a900460ff16905087565b600260009054906101000a900473ffffffffffffffffffffffffffffffffffffffff1673ffffffffffffffffffffffffffffffffffffffff163373ffffffffffffffffffffffffffffffffffffffff16146103e6576040517f08c379a00000000000000000000000000000000000000000000000000000000081526004016103dd90610f3b565b60405180910390fd5b60004790506000811161042e576040517f08c379a000000000000000000000000000000000000000000000000000000000815260040161042590610fa7565b60405180910390fd5b600260009054906101000a900473ffffffffffffffffffffffffffffffffffffffff1673ffffffffffffffffffffffffffffffffffffffff166108fc829081150290604051600060405180830381858888f19350505050158015610496573d6000803e3d6000fd5b5050565b60015481565b600260009054906101000a900473ffffffffffffffffffffffffffffffffffffffff1681565b60008211610509576040517f08c379a000000000000000000000000000000000000000000000000000000000815260040161050090611013565b60405180910390fd5b6000811161054c576040517f08c379a0000000000000000000000000000000000000000000000000000000008152600401610543906110a5565b60405180910390fd5b6001600081548092919061055f906110f4565b919050555060008142610572919061113c565b90506040518060e001604052808781526020018681526020018573ffffffffffffffffffffffffffffffffffffffff1681526020018481526020018281526020016000815260200160001515815250600080600154815260200190815260200160002060008201518160000190816105ea919061131c565b506020820151816001019081610600919061131c565b5060408201518160020160006101000a81548173ffffffffffffffffffffffffffffffffffffffff021916908373ffffffffffffffffffffffffffffffffffffffff160217905550606082015181600301556080820151816004015560a0820151816005015560c08201518160060160006101000a81548160ff0219169083151502179055509050507f2e4be7f0a0275b06869815699165e220352ac35bdea8c927565a098fa77dffb6600154878686856040516106c2959493929190611443565b60405180910390a1505050505050565b600080600083815260200190815260200160002090508060060160009054906101000a900460ff161561073a576040517f08c379a0000000000000000000000000000000000000000000000000000000008152600401610731906114e9565b60405180910390fd5b8060040154421015610781576040517f08c379a00000000000000000000000000000000000000000000000000000000081526004016107789061157b565b60405180910390fd5b60018160060160006101000a81548160ff0219169083151502179055506000816003015482600501541015905060008260050154111561082b578160020160009054906101000a900473ffffffffffffffffffffffffffffffffffffffff1673ffffffffffffffffffffffffffffffffffffffff166108fc83600501549081150290604051600060405180830381858888f19350505050158015610829573d6000803e3d6000fd5b505b7f2daeb9036523684d0097530a448d8d042ff2da258e6f6b7f30184fa0fd7bcf0a838360050154836040516108629392919061159b565b60405180910390a1505050565b60008060008381526020019081526020016000209050806004015442106108cb576040517f08c379a00000000000000000000000000000000000000000000000000000000081526004016108c29061161e565b60405180910390fd5b6000341161090e576040517f08c379a0000000000000000000000000000000000000000000000000000000008152600401610905906116b0565b60405180910390fd5b34816005016000828254610922919061113c565b925050819055507f0b5b4c52969ff7329ecf7ee536409fda87812b15a8622bc6e8cdeab3aee14a2682333460405161095c939291906116d0565b60405180910390a18060040154421061097957610978826106d2565b5b5050565b600082825260208201905092915050565b7f446972656374207472616e7366657273206e6f7420616c6c6f7765642e20557360008201527f652074686520646f6e6174652066756e6374696f6e2e00000000000000000000602082015250565b60006109ea60368361097d565b91506109f58261098e565b604082019050919050565b60006020820190508181036000830152610a19816109dd565b9050919050565b6000604051905090565b600080fd5b600080fd5b6000819050919050565b610a4781610a34565b8114610a5257600080fd5b50565b600081359050610a6481610a3e565b92915050565b600060208284031215610a8057610a7f610a2a565b5b6000610a8e84828501610a55565b91505092915050565b600081519050919050565b60005b83811015610ac0578082015181840152602081019050610aa5565b60008484015250505050565b6000601f19601f8301169050919050565b6000610ae882610a97565b610af2818561097d565b9350610b02818560208601610aa2565b610b0b81610acc565b840191505092915050565b600073ffffffffffffffffffffffffffffffffffffffff82169050919050565b6000610b4182610b16565b9050919050565b610b5181610b36565b82525050565b610b6081610a34565b82525050565b60008115159050919050565b610b7b81610b66565b82525050565b600060e0820190508181036000830152610b9b818a610add565b90508181036020830152610baf8189610add565b9050610bbe6040830188610b48565b610bcb6060830187610b57565b610bd86080830186610b57565b610be560a0830185610b57565b610bf260c0830184610b72565b98975050505050505050565b6000602082019050610c136000830184610b57565b92915050565b6000610c2482610b16565b9050919050565b610c3481610c19565b82525050565b6000602082019050610c4f6000830184610c2b565b92915050565b600080fd5b600080fd5b7f4e487b7100000000000000000000000000000000000000000000000000000000600052604160045260246000fd5b610c9782610acc565b810181811067ffffffffffffffff82111715610cb657610cb5610c5f565b5b80604052505050565b6000610cc9610a20565b9050610cd58282610c8e565b919050565b600067ffffffffffffffff821115610cf557610cf4610c5f565b5b610cfe82610acc565b9050602081019050919050565b82818337600083830152505050565b6000610d2d610d2884610cda565b610cbf565b905082815260208101848484011115610d4957610d48610c5a565b5b610d54848285610d0b565b509392505050565b600082601f830112610d7157610d70610c55565b5b8135610d81848260208601610d1a565b91505092915050565b610d9381610b36565b8114610d9e57600080fd5b50565b600081359050610db081610d8a565b92915050565b600080600080600060a08688031215610dd257610dd1610a2a565b5b600086013567ffffffffffffffff811115610df057610def610a2f565b5b610dfc88828901610d5c565b955050602086013567ffffffffffffffff811115610e1d57610e1c610a2f565b5b610e2988828901610d5c565b9450506040610e3a88828901610da1565b9350506060610e4b88828901610a55565b9250506080610e5c88828901610a55565b9150509295509295909350565b7f4e487b7100000000000000000000000000000000000000000000000000000000600052602260045260246000fd5b60006002820490506001821680610eb057607f821691505b602082108103610ec357610ec2610e69565b5b50919050565b7f4f6e6c792074686520636f6e7472616374206f776e65722063616e2063616c6c60008201527f20746869732066756e6374696f6e000000000000000000000000000000000000602082015250565b6000610f25602e8361097d565b9150610f3082610ec9565b604082019050919050565b60006020820190508181036000830152610f5481610f18565b9050919050565b7f4e6f2066756e647320746f207769746864726177000000000000000000000000600082015250565b6000610f9160148361097d565b9150610f9c82610f5b565b602082019050919050565b60006020820190508181036000830152610fc081610f84565b9050919050565b7f476f616c206d7573742062652067726561746572207468616e207a65726f0000600082015250565b6000610ffd601e8361097d565b915061100882610fc7565b602082019050919050565b6000602082019050818103600083015261102c81610ff0565b9050919050565b7f4475726174696f6e206d7573742062652067726561746572207468616e207a6560008201527f726f000000000000000000000000000000000000000000000000000000000000602082015250565b600061108f60228361097d565b915061109a82611033565b604082019050919050565b600060208201905081810360008301526110be81611082565b9050919050565b7f4e487b7100000000000000000000000000000000000000000000000000000000600052601160045260246000fd5b60006110ff82610a34565b91507fffffffffffffffffffffffffffffffffffffffffffffffffffffffffffffffff8203611131576111306110c5565b5b600182019050919050565b600061114782610a34565b915061115283610a34565b925082820190508082111561116a576111696110c5565b5b92915050565b60008190508160005260206000209050919050565b60006020601f8301049050919050565b600082821b905092915050565b6000600883026111d27fffffffffffffffffffffffffffffffffffffffffffffffffffffffffffffffff82611195565b6111dc8683611195565b95508019841693508086168417925050509392505050565b6000819050919050565b600061121961121461120f84610a34565b6111f4565b610a34565b9050919050565b6000819050919050565b611233836111fe565b61124761123f82611220565b8484546111a2565b825550505050565b600090565b61125c61124f565b61126781848461122a565b505050565b5b8181101561128b57611280600082611254565b60018101905061126d565b5050565b601f8211156112d0576112a181611170565b6112aa84611185565b810160208510156112b9578190505b6112cd6112c585611185565b83018261126c565b50505b505050565b600082821c905092915050565b60006112f3600019846008026112d5565b1980831691505092915050565b600061130c83836112e2565b9150826002028217905092915050565b61132582610a97565b67ffffffffffffffff81111561133e5761133d610c5f565b5b6113488254610e98565b61135382828561128f565b600060209050601f8311600181146113865760008415611374578287015190505b61137e8582611300565b8655506113e6565b601f19841661139486611170565b60005b828110156113bc57848901518255600182019150602085019450602081019050611397565b868310156113d957848901516113d5601f8916826112e2565b8355505b6001600288020188555050505b505050505050565b60006114096114046113ff84610b16565b6111f4565b610b16565b9050919050565b600061141b826113ee565b9050919050565b600061142d82611410565b9050919050565b61143d81611422565b82525050565b600060a0820190506114586000830188610b57565b818103602083015261146a8187610add565b90506114796040830186611434565b6114866060830185610b57565b6114936080830184610b57565b9695505050505050565b7f43616d706169676e2068617320616c726561647920656e646564000000000000600082015250565b60006114d3601a8361097d565b91506114de8261149d565b602082019050919050565b60006020820190508181036000830152611502816114c6565b9050919050565b7f43616d706169676e20646561646c696e6520686173206e6f74206265656e207260008201527f6561636865640000000000000000000000000000000000000000000000000000602082015250565b600061156560268361097d565b915061157082611509565b604082019050919050565b6000602082019050818103600083015261159481611558565b9050919050565b60006060820190506115b06000830186610b57565b6115bd6020830185610b57565b6115ca6040830184610b72565b949350505050565b7f43616d706169676e2068617320656e6465640000000000000000000000000000600082015250565b600061160860128361097d565b9150611613826115d2565b602082019050919050565b60006020820190508181036000830152611637816115fb565b9050919050565b7f446f6e6174696f6e20616d6f756e74206d75737420626520677265617465722060008201527f7468616e207a65726f0000000000000000000000000000000000000000000000602082015250565b600061169a60298361097d565b91506116a58261163e565b604082019050919050565b600060208201905081810360008301526116c98161168d565b9050919050565b60006060820190506116e56000830186610b57565b6116f26020830185610c2b565b6116ff6040830184610b57565b94935050505056fea26469706673582212200474f785a72e2d9b3c3b1d3155ea88fc5de379ae12a0118179960524848805d264736f6c63430008180033",
  "linkReferences": {},
  "deployedLinkReferences": {}
}